{"contracts/payment.sol":{"Payments":{"abi":[{"anonymous":false,"inputs":[{"indexed":false,"internalType":"uint256","name":"id","type":"uint256"},{"indexed":false,"internalType":"string","name":"transactionId","type":"string"}],"name":"PaymentCompleted","type":"event"},{"anonymous":false,"inputs":[{"indexed":false,"internalType":"uint256","name":"id","type":"uint256"},{"indexed":false,"internalType":"address","name":"payer","type":"address"},{"indexed":false,"internalType":"uint256","name":"amount","type":"uint256"},{"indexed":false,"internalType":"string","name":"transactionId","type":"string"}],"name":"PaymentCreated","type":"event"},{"inputs":[{"internalType":"uint256","name":"_id","type":"uint256"}],"name":"completePayment","outputs":[],"stateMutability":"nonpayable","type":"function"},{"inputs":[{"internalType":"uint256","name":"_id","type":"uint256"},{"internalType":"uint256","name":"_amount","type":"uint256"},{"internalType":"string","name":"_transactionId","type":"string"}],"name":"createPayment","outputs":[],"stateMutability":"nonpayable","type":"function"},{"inputs":[{"internalType":"uint256","name":"_id","type":"uint256"}],"name":"getPayment","outputs":[{"components":[{"internalType":"uint256","name":"id","type":"uint256"},{"internalType":"address","name":"payer","type":"address"},{"internalType":"uint256","name":"amount","type":"uint256"},{"internalType":"string","name":"status","type":"string"},{"internalType":"string","name":"transactionId","type":"string"}],"internalType":"struct Payments.Payment","name":"","type":"tuple"}],"stateMutability":"view","type":"function"},{"inputs":[{"internalType":"uint256","name":"","type":"uint256"}],"name":"payments","outputs":[{"internalType":"uint256","name":"id","type":"uint256"},{"internalType":"address","name":"payer","type":"address"},{"internalType":"uint256","name":"amount","type":"uint256"},{"internalType":"string","name":"status","type":"string"},{"internalType":"string","name":"transactionId","type":"string"}],"stateMutability":"view","type":"function"}],"evm":{"bytecode":{"linkReferences":{},"object":"608060405234801561001057600080fd5b5061102a806100206000396000f3fe608060405234801561001057600080fd5b506004361061004c5760003560e01c80633280a836146100515780634f01c6f21461008157806374672ac51461009d57806387d81789146100b9575b600080fd5b61006b60048036038101906100669190610762565b6100ed565b60405161007891906108ec565b60405180910390f35b61009b60048036038101906100969190610762565b6102b7565b005b6100b760048036038101906100b29190610a43565b6103f5565b005b6100d360048036038101906100ce9190610762565b61055d565b6040516100e4959493929190610b1a565b60405180910390f35b6100f56106d3565b6000828154811061010957610108610b7b565b5b90600052602060002090600502016040518060a0016040529081600082015481526020016001820160009054906101000a900473ffffffffffffffffffffffffffffffffffffffff1673ffffffffffffffffffffffffffffffffffffffff1673ffffffffffffffffffffffffffffffffffffffff1681526020016002820154815260200160038201805461019c90610bd9565b80601f01602080910402602001604051908101604052809291908181526020018280546101c890610bd9565b80156102155780601f106101ea57610100808354040283529160200191610215565b820191906000526020600020905b8154815290600101906020018083116101f857829003601f168201915b5050505050815260200160048201805461022e90610bd9565b80601f016020809104026020016040519081016040528092919081815260200182805461025a90610bd9565b80156102a75780601f1061027c576101008083540402835291602001916102a7565b820191906000526020600020905b81548152906001019060200180831161028a57829003601f168201915b5050505050815250509050919050565b60008082815481106102cc576102cb610b7b565b5b906000526020600020906005020190508060010160009054906101000a900473ffffffffffffffffffffffffffffffffffffffff1673ffffffffffffffffffffffffffffffffffffffff163373ffffffffffffffffffffffffffffffffffffffff161461036e576040517f08c379a000000000000000000000000000000000000000000000000000000000815260040161036590610c56565b60405180910390fd5b6040518060400160405280600981526020017f636f6d706c6574656400000000000000000000000000000000000000000000008152508160030190816103b49190610e22565b507f446b53a9496f96b95579e158fe1799f054a7eca794b95d13c30e307ecb4162f182826004016040516103e9929190610f78565b60405180910390a15050565b60006040518060a001604052808581526020013373ffffffffffffffffffffffffffffffffffffffff1681526020018481526020016040518060400160405280600781526020017f70656e64696e670000000000000000000000000000000000000000000000000081525081526020018381525090806001815401808255809150506001900390600052602060002090600502016000909190919091506000820151816000015560208201518160010160006101000a81548173ffffffffffffffffffffffffffffffffffffffff021916908373ffffffffffffffffffffffffffffffffffffffff1602179055506040820151816002015560608201518160030190816105029190610e22565b5060808201518160040190816105189190610e22565b5050507faa8f9254dae3aad45f8301a3a7ebdd389cee0278db542ecc5f9636beaee61442833384846040516105509493929190610fa8565b60405180910390a1505050565b6000818154811061056d57600080fd5b90600052602060002090600502016000915090508060000154908060010160009054906101000a900473ffffffffffffffffffffffffffffffffffffffff16908060020154908060030180546105c290610bd9565b80601f01602080910402602001604051908101604052809291908181526020018280546105ee90610bd9565b801561063b5780601f106106105761010080835404028352916020019161063b565b820191906000526020600020905b81548152906001019060200180831161061e57829003601f168201915b50505050509080600401805461065090610bd9565b80601f016020809104026020016040519081016040528092919081815260200182805461067c90610bd9565b80156106c95780601f1061069e576101008083540402835291602001916106c9565b820191906000526020600020905b8154815290600101906020018083116106ac57829003601f168201915b5050505050905085565b6040518060a0016040528060008152602001600073ffffffffffffffffffffffffffffffffffffffff1681526020016000815260200160608152602001606081525090565b6000604051905090565b600080fd5b600080fd5b6000819050919050565b61073f8161072c565b811461074a57600080fd5b50565b60008135905061075c81610736565b92915050565b60006020828403121561077857610777610722565b5b60006107868482850161074d565b91505092915050565b6107988161072c565b82525050565b600073ffffffffffffffffffffffffffffffffffffffff82169050919050565b60006107c98261079e565b9050919050565b6107d9816107be565b82525050565b600081519050919050565b600082825260208201905092915050565b60005b838110156108195780820151818401526020810190506107fe565b60008484015250505050565b6000601f19601f8301169050919050565b6000610841826107df565b61084b81856107ea565b935061085b8185602086016107fb565b61086481610825565b840191505092915050565b600060a083016000830151610887600086018261078f565b50602083015161089a60208601826107d0565b5060408301516108ad604086018261078f565b50606083015184820360608601526108c58282610836565b915050608083015184820360808601526108df8282610836565b9150508091505092915050565b60006020820190508181036000830152610906818461086f565b905092915050565b600080fd5b600080fd5b7f4e487b7100000000000000000000000000000000000000000000000000000000600052604160045260246000fd5b61095082610825565b810181811067ffffffffffffffff8211171561096f5761096e610918565b5b80604052505050565b6000610982610718565b905061098e8282610947565b919050565b600067ffffffffffffffff8211156109ae576109ad610918565b5b6109b782610825565b9050602081019050919050565b82818337600083830152505050565b60006109e66109e184610993565b610978565b905082815260208101848484011115610a0257610a01610913565b5b610a0d8482856109c4565b509392505050565b600082601f830112610a2a57610a2961090e565b5b8135610a3a8482602086016109d3565b91505092915050565b600080600060608486031215610a5c57610a5b610722565b5b6000610a6a8682870161074d565b9350506020610a7b8682870161074d565b925050604084013567ffffffffffffffff811115610a9c57610a9b610727565b5b610aa886828701610a15565b9150509250925092565b610abb8161072c565b82525050565b610aca816107be565b82525050565b600082825260208201905092915050565b6000610aec826107df565b610af68185610ad0565b9350610b068185602086016107fb565b610b0f81610825565b840191505092915050565b600060a082019050610b2f6000830188610ab2565b610b3c6020830187610ac1565b610b496040830186610ab2565b8181036060830152610b5b8185610ae1565b90508181036080830152610b6f8184610ae1565b90509695505050505050565b7f4e487b7100000000000000000000000000000000000000000000000000000000600052603260045260246000fd5b7f4e487b7100000000000000000000000000000000000000000000000000000000600052602260045260246000fd5b60006002820490506001821680610bf157607f821691505b602082108103610c0457610c03610baa565b5b50919050565b7f4e6f7420617574686f72697a6564000000000000000000000000000000000000600082015250565b6000610c40600e83610ad0565b9150610c4b82610c0a565b602082019050919050565b60006020820190508181036000830152610c6f81610c33565b9050919050565b60008190508160005260206000209050919050565b60006020601f8301049050919050565b600082821b905092915050565b600060088302610cd87fffffffffffffffffffffffffffffffffffffffffffffffffffffffffffffffff82610c9b565b610ce28683610c9b565b95508019841693508086168417925050509392505050565b6000819050919050565b6000610d1f610d1a610d158461072c565b610cfa565b61072c565b9050919050565b6000819050919050565b610d3983610d04565b610d4d610d4582610d26565b848454610ca8565b825550505050565b600090565b610d62610d55565b610d6d818484610d30565b505050565b5b81811015610d9157610d86600082610d5a565b600181019050610d73565b5050565b601f821115610dd657610da781610c76565b610db084610c8b565b81016020851015610dbf578190505b610dd3610dcb85610c8b565b830182610d72565b50505b505050565b600082821c905092915050565b6000610df960001984600802610ddb565b1980831691505092915050565b6000610e128383610de8565b9150826002028217905092915050565b610e2b826107df565b67ffffffffffffffff811115610e4457610e43610918565b5b610e4e8254610bd9565b610e59828285610d95565b600060209050601f831160018114610e8c5760008415610e7a578287015190505b610e848582610e06565b865550610eec565b601f198416610e9a86610c76565b60005b82811015610ec257848901518255600182019150602085019450602081019050610e9d565b86831015610edf5784890151610edb601f891682610de8565b8355505b6001600288020188555050505b505050505050565b60008154610f0181610bd9565b610f0b8186610ad0565b94506001821660008114610f265760018114610f3c57610f6f565b60ff198316865281151560200286019350610f6f565b610f4585610c76565b60005b83811015610f6757815481890152600182019150602081019050610f48565b808801955050505b50505092915050565b6000604082019050610f8d6000830185610ab2565b8181036020830152610f9f8184610ef4565b90509392505050565b6000608082019050610fbd6000830187610ab2565b610fca6020830186610ac1565b610fd76040830185610ab2565b8181036060830152610fe98184610ae1565b90509594505050505056fea264697066735822122097ff39100192627bd78de5c9f78fad74b54eb026152b08ded7ce1013039c46f564736f6c63430008180033","opcodes":"PUSH1 0x80 PUSH1 0x40 MSTORE CALLVALUE DUP1 ISZERO PUSH2 0x10 JUMPI PUSH1 0x0 DUP1 REVERT JUMPDEST POP PUSH2 0x102A DUP1 PUSH2 0x20 PUSH1 0x0 CODECOPY PUSH1 0x0 RETURN INVALID PUSH1 0x80 PUSH1 0x40 MSTORE CALLVALUE DUP1 ISZERO PUSH2 0x10 JUMPI PUSH1 0x0 DUP1 REVERT JUMPDEST POP PUSH1 0x4 CALLDATASIZE LT PUSH2 0x4C JUMPI PUSH1 0x0 CALLDATALOAD PUSH1 0xE0 SHR DUP1 PUSH4 0x3280A836 EQ PUSH2 0x51 JUMPI DUP1 PUSH4 0x4F01C6F2 EQ PUSH2 0x81 JUMPI DUP1 PUSH4 0x74672AC5 EQ PUSH2 0x9D JUMPI DUP1 PUSH4 0x87D81789 EQ PUSH2 0xB9 JUMPI JUMPDEST PUSH1 0x0 DUP1 REVERT JUMPDEST PUSH2 0x6B PUSH1 0x4 DUP1 CALLDATASIZE SUB DUP2 ADD SWAP1 PUSH2 0x66 SWAP2 SWAP1 PUSH2 0x762 JUMP JUMPDEST PUSH2 0xED JUMP JUMPDEST PUSH1 0x40 MLOAD PUSH2 0x78 SWAP2 SWAP1 PUSH2 0x8EC JUMP JUMPDEST PUSH1 0x40 MLOAD DUP1 SWAP2 SUB SWAP1 RETURN JUMPDEST PUSH2 0x9B PUSH1 0x4 DUP1 CALLDATASIZE SUB DUP2 ADD SWAP1 PUSH2 0x96 SWAP2 SWAP1 PUSH2 0x762 JUMP JUMPDEST PUSH2 0x2B7 JUMP JUMPDEST STOP JUMPDEST PUSH2 0xB7 PUSH1 0x4 DUP1 CALLDATASIZE SUB DUP2 ADD SWAP1 PUSH2 0xB2 SWAP2 SWAP1 PUSH2 0xA43 JUMP JUMPDEST PUSH2 0x3F5 JUMP JUMPDEST STOP JUMPDEST PUSH2 0xD3 PUSH1 0x4 DUP1 CALLDATASIZE SUB DUP2 ADD SWAP1 PUSH2 0xCE SWAP2 SWAP1 PUSH2 0x762 JUMP JUMPDEST PUSH2 0x55D JUMP JUMPDEST PUSH1 0x40 MLOAD PUSH2 0xE4 SWAP6 SWAP5 SWAP4 SWAP3 SWAP2 SWAP1 PUSH2 0xB1A JUMP JUMPDEST PUSH1 0x40 MLOAD DUP1 SWAP2 SUB SWAP1 RETURN JUMPDEST PUSH2 0xF5 PUSH2 0x6D3 JUMP JUMPDEST PUSH1 0x0 DUP3 DUP2 SLOAD DUP2 LT PUSH2 0x109 JUMPI PUSH2 0x108 PUSH2 0xB7B JUMP JUMPDEST JUMPDEST SWAP1 PUSH1 0x0 MSTORE PUSH1 0x20 PUSH1 0x0 KECCAK256 SWAP1 PUSH1 0x5 MUL ADD PUSH1 0x40 MLOAD DUP1 PUSH1 0xA0 ADD PUSH1 0x40 MSTORE SWAP1 DUP2 PUSH1 0x0 DUP3 ADD SLOAD DUP2 MSTORE PUSH1 0x20 ADD PUSH1 0x1 DUP3 ADD PUSH1 0x0 SWAP1 SLOAD SWAP1 PUSH2 0x100 EXP SWAP1 DIV PUSH20 0xFFFFFFFFFFFFFFFFFFFFFFFFFFFFFFFFFFFFFFFF AND PUSH20 0xFFFFFFFFFFFFFFFFFFFFFFFFFFFFFFFFFFFFFFFF AND PUSH20 0xFFFFFFFFFFFFFFFFFFFFFFFFFFFFFFFFFFFFFFFF AND DUP2 MSTORE PUSH1 0x20 ADD PUSH1 0x2 DUP3 ADD SLOAD DUP2 MSTORE PUSH1 0x20 ADD PUSH1 0x3 DUP3 ADD DUP1 SLOAD PUSH2 0x19C SWAP1 PUSH2 0xBD9 JUMP JUMPDEST DUP1 PUSH1 0x1F ADD PUSH1 0x20 DUP1 SWAP2 DIV MUL PUSH1 0x20 ADD PUSH1 0x40 MLOAD SWAP1 DUP2 ADD PUSH1 0x40 MSTORE DUP1 SWAP3 SWAP2 SWAP1 DUP2 DUP2 MSTORE PUSH1 0x20 ADD DUP3 DUP1 SLOAD PUSH2 0x1C8 SWAP1 PUSH2 0xBD9 JUMP JUMPDEST DUP1 ISZERO PUSH2 0x215 JUMPI DUP1 PUSH1 0x1F LT PUSH2 0x1EA JUMPI PUSH2 0x100 DUP1 DUP4 SLOAD DIV MUL DUP4 MSTORE SWAP2 PUSH1 0x20 ADD SWAP2 PUSH2 0x215 JUMP JUMPDEST DUP3 ADD SWAP2 SWAP1 PUSH1 0x0 MSTORE PUSH1 0x20 PUSH1 0x0 KECCAK256 SWAP1 JUMPDEST DUP2 SLOAD DUP2 MSTORE SWAP1 PUSH1 0x1 ADD SWAP1 PUSH1 0x20 ADD DUP1 DUP4 GT PUSH2 0x1F8 JUMPI DUP3 SWAP1 SUB PUSH1 0x1F AND DUP3 ADD SWAP2 JUMPDEST POP POP POP POP POP DUP2 MSTORE PUSH1 0x20 ADD PUSH1 0x4 DUP3 ADD DUP1 SLOAD PUSH2 0x22E SWAP1 PUSH2 0xBD9 JUMP JUMPDEST DUP1 PUSH1 0x1F ADD PUSH1 0x20 DUP1 SWAP2 DIV MUL PUSH1 0x20 ADD PUSH1 0x40 MLOAD SWAP1 DUP2 ADD PUSH1 0x40 MSTORE DUP1 SWAP3 SWAP2 SWAP1 DUP2 DUP2 MSTORE PUSH1 0x20 ADD DUP3 DUP1 SLOAD PUSH2 0x25A SWAP1 PUSH2 0xBD9 JUMP JUMPDEST DUP1 ISZERO PUSH2 0x2A7 JUMPI DUP1 PUSH1 0x1F LT PUSH2 0x27C JUMPI PUSH2 0x100 DUP1 DUP4 SLOAD DIV MUL DUP4 MSTORE SWAP2 PUSH1 0x20 ADD SWAP2 PUSH2 0x2A7 JUMP JUMPDEST DUP3 ADD SWAP2 SWAP1 PUSH1 0x0 MSTORE PUSH1 0x20 PUSH1 0x0 KECCAK256 SWAP1 JUMPDEST DUP2 SLOAD DUP2 MSTORE SWAP1 PUSH1 0x1 ADD SWAP1 PUSH1 0x20 ADD DUP1 DUP4 GT PUSH2 0x28A JUMPI DUP3 SWAP1 SUB PUSH1 0x1F AND DUP3 ADD SWAP2 JUMPDEST POP POP POP POP POP DUP2 MSTORE POP POP SWAP1 POP SWAP2 SWAP1 POP JUMP JUMPDEST PUSH1 0x0 DUP1 DUP3 DUP2 SLOAD DUP2 LT PUSH2 0x2CC JUMPI PUSH2 0x2CB PUSH2 0xB7B JUMP JUMPDEST JUMPDEST SWAP1 PUSH1 0x0 MSTORE PUSH1 0x20 PUSH1 0x0 KECCAK256 SWAP1 PUSH1 0x5 MUL ADD SWAP1 POP DUP1 PUSH1 0x1 ADD PUSH1 0x0 SWAP1 SLOAD SWAP1 PUSH2 0x100 EXP SWAP1 DIV PUSH20 0xFFFFFFFFFFFFFFFFFFFFFFFFFFFFFFFFFFFFFFFF AND PUSH20 0xFFFFFFFFFFFFFFFFFFFFFFFFFFFFFFFFFFFFFFFF AND CALLER PUSH20 0xFFFFFFFFFFFFFFFFFFFFFFFFFFFFFFFFFFFFFFFF AND EQ PUSH2 0x36E JUMPI PUSH1 0x40 MLOAD PUSH32 0x8C379A000000000000000000000000000000000000000000000000000000000 DUP2 MSTORE PUSH1 0x4 ADD PUSH2 0x365 SWAP1 PUSH2 0xC56 JUMP JUMPDEST PUSH1 0x40 MLOAD DUP1 SWAP2 SUB SWAP1 REVERT JUMPDEST PUSH1 0x40 MLOAD DUP1 PUSH1 0x40 ADD PUSH1 0x40 MSTORE DUP1 PUSH1 0x9 DUP2 MSTORE PUSH1 0x20 ADD PUSH32 0x636F6D706C657465640000000000000000000000000000000000000000000000 DUP2 MSTORE POP DUP2 PUSH1 0x3 ADD SWAP1 DUP2 PUSH2 0x3B4 SWAP2 SWAP1 PUSH2 0xE22 JUMP JUMPDEST POP PUSH32 0x446B53A9496F96B95579E158FE1799F054A7ECA794B95D13C30E307ECB4162F1 DUP3 DUP3 PUSH1 0x4 ADD PUSH1 0x40 MLOAD PUSH2 0x3E9 SWAP3 SWAP2 SWAP1 PUSH2 0xF78 JUMP JUMPDEST PUSH1 0x40 MLOAD DUP1 SWAP2 SUB SWAP1 LOG1 POP POP JUMP JUMPDEST PUSH1 0x0 PUSH1 0x40 MLOAD DUP1 PUSH1 0xA0 ADD PUSH1 0x40 MSTORE DUP1 DUP6 DUP2 MSTORE PUSH1 0x20 ADD CALLER PUSH20 0xFFFFFFFFFFFFFFFFFFFFFFFFFFFFFFFFFFFFFFFF AND DUP2 MSTORE PUSH1 0x20 ADD DUP5 DUP2 MSTORE PUSH1 0x20 ADD PUSH1 0x40 MLOAD DUP1 PUSH1 0x40 ADD PUSH1 0x40 MSTORE DUP1 PUSH1 0x7 DUP2 MSTORE PUSH1 0x20 ADD PUSH32 0x70656E64696E6700000000000000000000000000000000000000000000000000 DUP2 MSTORE POP DUP2 MSTORE PUSH1 0x20 ADD DUP4 DUP2 MSTORE POP SWAP1 DUP1 PUSH1 0x1 DUP2 SLOAD ADD DUP1 DUP3 SSTORE DUP1 SWAP2 POP POP PUSH1 0x1 SWAP1 SUB SWAP1 PUSH1 0x0 MSTORE PUSH1 0x20 PUSH1 0x0 KECCAK256 SWAP1 PUSH1 0x5 MUL ADD PUSH1 0x0 SWAP1 SWAP2 SWAP1 SWAP2 SWAP1 SWAP2 POP PUSH1 0x0 DUP3 ADD MLOAD DUP2 PUSH1 0x0 ADD SSTORE PUSH1 0x20 DUP3 ADD MLOAD DUP2 PUSH1 0x1 ADD PUSH1 0x0 PUSH2 0x100 EXP DUP2 SLOAD DUP2 PUSH20 0xFFFFFFFFFFFFFFFFFFFFFFFFFFFFFFFFFFFFFFFF MUL NOT AND SWAP1 DUP4 PUSH20 0xFFFFFFFFFFFFFFFFFFFFFFFFFFFFFFFFFFFFFFFF AND MUL OR SWAP1 SSTORE POP PUSH1 0x40 DUP3 ADD MLOAD DUP2 PUSH1 0x2 ADD SSTORE PUSH1 0x60 DUP3 ADD MLOAD DUP2 PUSH1 0x3 ADD SWAP1 DUP2 PUSH2 0x502 SWAP2 SWAP1 PUSH2 0xE22 JUMP JUMPDEST POP PUSH1 0x80 DUP3 ADD MLOAD DUP2 PUSH1 0x4 ADD SWAP1 DUP2 PUSH2 0x518 SWAP2 SWAP1 PUSH2 0xE22 JUMP JUMPDEST POP POP POP PUSH32 0xAA8F9254DAE3AAD45F8301A3A7EBDD389CEE0278DB542ECC5F9636BEAEE61442 DUP4 CALLER DUP5 DUP5 PUSH1 0x40 MLOAD PUSH2 0x550 SWAP5 SWAP4 SWAP3 SWAP2 SWAP1 PUSH2 0xFA8 JUMP JUMPDEST PUSH1 0x40 MLOAD DUP1 SWAP2 SUB SWAP1 LOG1 POP POP POP JUMP JUMPDEST PUSH1 0x0 DUP2 DUP2 SLOAD DUP2 LT PUSH2 0x56D JUMPI PUSH1 0x0 DUP1 REVERT JUMPDEST SWAP1 PUSH1 0x0 MSTORE PUSH1 0x20 PUSH1 0x0 KECCAK256 SWAP1 PUSH1 0x5 MUL ADD PUSH1 0x0 SWAP2 POP SWAP1 POP DUP1 PUSH1 0x0 ADD SLOAD SWAP1 DUP1 PUSH1 0x1 ADD PUSH1 0x0 SWAP1 SLOAD SWAP1 PUSH2 0x100 EXP SWAP1 DIV PUSH20 0xFFFFFFFFFFFFFFFFFFFFFFFFFFFFFFFFFFFFFFFF AND SWAP1 DUP1 PUSH1 0x2 ADD SLOAD SWAP1 DUP1 PUSH1 0x3 ADD DUP1 SLOAD PUSH2 0x5C2 SWAP1 PUSH2 0xBD9 JUMP JUMPDEST DUP1 PUSH1 0x1F ADD PUSH1 0x20 DUP1 SWAP2 DIV MUL PUSH1 0x20 ADD PUSH1 0x40 MLOAD SWAP1 DUP2 ADD PUSH1 0x40 MSTORE DUP1 SWAP3 SWAP2 SWAP1 DUP2 DUP2 MSTORE PUSH1 0x20 ADD DUP3 DUP1 SLOAD PUSH2 0x5EE SWAP1 PUSH2 0xBD9 JUMP JUMPDEST DUP1 ISZERO PUSH2 0x63B JUMPI DUP1 PUSH1 0x1F LT PUSH2 0x610 JUMPI PUSH2 0x100 DUP1 DUP4 SLOAD DIV MUL DUP4 MSTORE SWAP2 PUSH1 0x20 ADD SWAP2 PUSH2 0x63B JUMP JUMPDEST DUP3 ADD SWAP2 SWAP1 PUSH1 0x0 MSTORE PUSH1 0x20 PUSH1 0x0 KECCAK256 SWAP1 JUMPDEST DUP2 SLOAD DUP2 MSTORE SWAP1 PUSH1 0x1 ADD SWAP1 PUSH1 0x20 ADD DUP1 DUP4 GT PUSH2 0x61E JUMPI DUP3 SWAP1 SUB PUSH1 0x1F AND DUP3 ADD SWAP2 JUMPDEST POP POP POP POP POP SWAP1 DUP1 PUSH1 0x4 ADD DUP1 SLOAD PUSH2 0x650 SWAP1 PUSH2 0xBD9 JUMP JUMPDEST DUP1 PUSH1 0x1F ADD PUSH1 0x20 DUP1 SWAP2 DIV MUL PUSH1 0x20 ADD PUSH1 0x40 MLOAD SWAP1 DUP2 ADD PUSH1 0x40 MSTORE DUP1 SWAP3 SWAP2 SWAP1 DUP2 DUP2 MSTORE PUSH1 0x20 ADD DUP3 DUP1 SLOAD PUSH2 0x67C SWAP1 PUSH2 0xBD9 JUMP JUMPDEST DUP1 ISZERO PUSH2 0x6C9 JUMPI DUP1 PUSH1 0x1F LT PUSH2 0x69E JUMPI PUSH2 0x100 DUP1 DUP4 SLOAD DIV MUL DUP4 MSTORE SWAP2 PUSH1 0x20 ADD SWAP2 PUSH2 0x6C9 JUMP JUMPDEST DUP3 ADD SWAP2 SWAP1 PUSH1 0x0 MSTORE PUSH1 0x20 PUSH1 0x0 KECCAK256 SWAP1 JUMPDEST DUP2 SLOAD DUP2 MSTORE SWAP1 PUSH1 0x1 ADD SWAP1 PUSH1 0x20 ADD DUP1 DUP4 GT PUSH2 0x6AC JUMPI DUP3 SWAP1 SUB PUSH1 0x1F AND DUP3 ADD SWAP2 JUMPDEST POP POP POP POP POP SWAP1 POP DUP6 JUMP JUMPDEST PUSH1 0x40 MLOAD DUP1 PUSH1 0xA0 ADD PUSH1 0x40 MSTORE DUP1 PUSH1 0x0 DUP2 MSTORE PUSH1 0x20 ADD PUSH1 0x0 PUSH20 0xFFFFFFFFFFFFFFFFFFFFFFFFFFFFFFFFFFFFFFFF AND DUP2 MSTORE PUSH1 0x20 ADD PUSH1 0x0 DUP2 MSTORE PUSH1 0x20 ADD PUSH1 0x60 DUP2 MSTORE PUSH1 0x20 ADD PUSH1 0x60 DUP2 MSTORE POP SWAP1 JUMP JUMPDEST PUSH1 0x0 PUSH1 0x40 MLOAD SWAP1 POP SWAP1 JUMP JUMPDEST PUSH1 0x0 DUP1 REVERT JUMPDEST PUSH1 0x0 DUP1 REVERT JUMPDEST PUSH1 0x0 DUP2 SWAP1 POP SWAP2 SWAP1 POP JUMP JUMPDEST PUSH2 0x73F DUP2 PUSH2 0x72C JUMP JUMPDEST DUP2 EQ PUSH2 0x74A JUMPI PUSH1 0x0 DUP1 REVERT JUMPDEST POP JUMP JUMPDEST PUSH1 0x0 DUP2 CALLDATALOAD SWAP1 POP PUSH2 0x75C DUP2 PUSH2 0x736 JUMP JUMPDEST SWAP3 SWAP2 POP POP JUMP JUMPDEST PUSH1 0x0 PUSH1 0x20 DUP3 DUP5 SUB SLT ISZERO PUSH2 0x778 JUMPI PUSH2 0x777 PUSH2 0x722 JUMP JUMPDEST JUMPDEST PUSH1 0x0 PUSH2 0x786 DUP5 DUP3 DUP6 ADD PUSH2 0x74D JUMP JUMPDEST SWAP2 POP POP SWAP3 SWAP2 POP POP JUMP JUMPDEST PUSH2 0x798 DUP2 PUSH2 0x72C JUMP JUMPDEST DUP3 MSTORE POP POP JUMP JUMPDEST PUSH1 0x0 PUSH20 0xFFFFFFFFFFFFFFFFFFFFFFFFFFFFFFFFFFFFFFFF DUP3 AND SWAP1 POP SWAP2 SWAP1 POP JUMP JUMPDEST PUSH1 0x0 PUSH2 0x7C9 DUP3 PUSH2 0x79E JUMP JUMPDEST SWAP1 POP SWAP2 SWAP1 POP JUMP JUMPDEST PUSH2 0x7D9 DUP2 PUSH2 0x7BE JUMP JUMPDEST DUP3 MSTORE POP POP JUMP JUMPDEST PUSH1 0x0 DUP2 MLOAD SWAP1 POP SWAP2 SWAP1 POP JUMP JUMPDEST PUSH1 0x0 DUP3 DUP3 MSTORE PUSH1 0x20 DUP3 ADD SWAP1 POP SWAP3 SWAP2 POP POP JUMP JUMPDEST PUSH1 0x0 JUMPDEST DUP4 DUP2 LT ISZERO PUSH2 0x819 JUMPI DUP1 DUP3 ADD MLOAD DUP2 DUP5 ADD MSTORE PUSH1 0x20 DUP2 ADD SWAP1 POP PUSH2 0x7FE JUMP JUMPDEST PUSH1 0x0 DUP5 DUP5 ADD MSTORE POP POP POP POP JUMP JUMPDEST PUSH1 0x0 PUSH1 0x1F NOT PUSH1 0x1F DUP4 ADD AND SWAP1 POP SWAP2 SWAP1 POP JUMP JUMPDEST PUSH1 0x0 PUSH2 0x841 DUP3 PUSH2 0x7DF JUMP JUMPDEST PUSH2 0x84B DUP2 DUP6 PUSH2 0x7EA JUMP JUMPDEST SWAP4 POP PUSH2 0x85B DUP2 DUP6 PUSH1 0x20 DUP7 ADD PUSH2 0x7FB JUMP JUMPDEST PUSH2 0x864 DUP2 PUSH2 0x825 JUMP JUMPDEST DUP5 ADD SWAP2 POP POP SWAP3 SWAP2 POP POP JUMP JUMPDEST PUSH1 0x0 PUSH1 0xA0 DUP4 ADD PUSH1 0x0 DUP4 ADD MLOAD PUSH2 0x887 PUSH1 0x0 DUP7 ADD DUP3 PUSH2 0x78F JUMP JUMPDEST POP PUSH1 0x20 DUP4 ADD MLOAD PUSH2 0x89A PUSH1 0x20 DUP7 ADD DUP3 PUSH2 0x7D0 JUMP JUMPDEST POP PUSH1 0x40 DUP4 ADD MLOAD PUSH2 0x8AD PUSH1 0x40 DUP7 ADD DUP3 PUSH2 0x78F JUMP JUMPDEST POP PUSH1 0x60 DUP4 ADD MLOAD DUP5 DUP3 SUB PUSH1 0x60 DUP7 ADD MSTORE PUSH2 0x8C5 DUP3 DUP3 PUSH2 0x836 JUMP JUMPDEST SWAP2 POP POP PUSH1 0x80 DUP4 ADD MLOAD DUP5 DUP3 SUB PUSH1 0x80 DUP7 ADD MSTORE PUSH2 0x8DF DUP3 DUP3 PUSH2 0x836 JUMP JUMPDEST SWAP2 POP POP DUP1 SWAP2 POP POP SWAP3 SWAP2 POP POP JUMP JUMPDEST PUSH1 0x0 PUSH1 0x20 DUP3 ADD SWAP1 POP DUP2 DUP2 SUB PUSH1 0x0 DUP4 ADD MSTORE PUSH2 0x906 DUP2 DUP5 PUSH2 0x86F JUMP JUMPDEST SWAP1 POP SWAP3 SWAP2 POP POP JUMP JUMPDEST PUSH1 0x0 DUP1 REVERT JUMPDEST PUSH1 0x0 DUP1 REVERT JUMPDEST PUSH32 0x4E487B7100000000000000000000000000000000000000000000000000000000 PUSH1 0x0 MSTORE PUSH1 0x41 PUSH1 0x4 MSTORE PUSH1 0x24 PUSH1 0x0 REVERT JUMPDEST PUSH2 0x950 DUP3 PUSH2 0x825 JUMP JUMPDEST DUP2 ADD DUP2 DUP2 LT PUSH8 0xFFFFFFFFFFFFFFFF DUP3 GT OR ISZERO PUSH2 0x96F JUMPI PUSH2 0x96E PUSH2 0x918 JUMP JUMPDEST JUMPDEST DUP1 PUSH1 0x40 MSTORE POP POP POP JUMP JUMPDEST PUSH1 0x0 PUSH2 0x982 PUSH2 0x718 JUMP JUMPDEST SWAP1 POP PUSH2 0x98E DUP3 DUP3 PUSH2 0x947 JUMP JUMPDEST SWAP2 SWAP1 POP JUMP JUMPDEST PUSH1 0x0 PUSH8 0xFFFFFFFFFFFFFFFF DUP3 GT ISZERO PUSH2 0x9AE JUMPI PUSH2 0x9AD PUSH2 0x918 JUMP JUMPDEST JUMPDEST PUSH2 0x9B7 DUP3 PUSH2 0x825 JUMP JUMPDEST SWAP1 POP PUSH1 0x20 DUP2 ADD SWAP1 POP SWAP2 SWAP1 POP JUMP JUMPDEST DUP3 DUP2 DUP4 CALLDATACOPY PUSH1 0x0 DUP4 DUP4 ADD MSTORE POP POP POP JUMP JUMPDEST PUSH1 0x0 PUSH2 0x9E6 PUSH2 0x9E1 DUP5 PUSH2 0x993 JUMP JUMPDEST PUSH2 0x978 JUMP JUMPDEST SWAP1 POP DUP3 DUP2 MSTORE PUSH1 0x20 DUP2 ADD DUP5 DUP5 DUP5 ADD GT ISZERO PUSH2 0xA02 JUMPI PUSH2 0xA01 PUSH2 0x913 JUMP JUMPDEST JUMPDEST PUSH2 0xA0D DUP5 DUP3 DUP6 PUSH2 0x9C4 JUMP JUMPDEST POP SWAP4 SWAP3 POP POP POP JUMP JUMPDEST PUSH1 0x0 DUP3 PUSH1 0x1F DUP4 ADD SLT PUSH2 0xA2A JUMPI PUSH2 0xA29 PUSH2 0x90E JUMP JUMPDEST JUMPDEST DUP2 CALLDATALOAD PUSH2 0xA3A DUP5 DUP3 PUSH1 0x20 DUP7 ADD PUSH2 0x9D3 JUMP JUMPDEST SWAP2 POP POP SWAP3 SWAP2 POP POP JUMP JUMPDEST PUSH1 0x0 DUP1 PUSH1 0x0 PUSH1 0x60 DUP5 DUP7 SUB SLT ISZERO PUSH2 0xA5C JUMPI PUSH2 0xA5B PUSH2 0x722 JUMP JUMPDEST JUMPDEST PUSH1 0x0 PUSH2 0xA6A DUP7 DUP3 DUP8 ADD PUSH2 0x74D JUMP JUMPDEST SWAP4 POP POP PUSH1 0x20 PUSH2 0xA7B DUP7 DUP3 DUP8 ADD PUSH2 0x74D JUMP JUMPDEST SWAP3 POP POP PUSH1 0x40 DUP5 ADD CALLDATALOAD PUSH8 0xFFFFFFFFFFFFFFFF DUP2 GT ISZERO PUSH2 0xA9C JUMPI PUSH2 0xA9B PUSH2 0x727 JUMP JUMPDEST JUMPDEST PUSH2 0xAA8 DUP7 DUP3 DUP8 ADD PUSH2 0xA15 JUMP JUMPDEST SWAP2 POP POP SWAP3 POP SWAP3 POP SWAP3 JUMP JUMPDEST PUSH2 0xABB DUP2 PUSH2 0x72C JUMP JUMPDEST DUP3 MSTORE POP POP JUMP JUMPDEST PUSH2 0xACA DUP2 PUSH2 0x7BE JUMP JUMPDEST DUP3 MSTORE POP POP JUMP JUMPDEST PUSH1 0x0 DUP3 DUP3 MSTORE PUSH1 0x20 DUP3 ADD SWAP1 POP SWAP3 SWAP2 POP POP JUMP JUMPDEST PUSH1 0x0 PUSH2 0xAEC DUP3 PUSH2 0x7DF JUMP JUMPDEST PUSH2 0xAF6 DUP2 DUP6 PUSH2 0xAD0 JUMP JUMPDEST SWAP4 POP PUSH2 0xB06 DUP2 DUP6 PUSH1 0x20 DUP7 ADD PUSH2 0x7FB JUMP JUMPDEST PUSH2 0xB0F DUP2 PUSH2 0x825 JUMP JUMPDEST DUP5 ADD SWAP2 POP POP SWAP3 SWAP2 POP POP JUMP JUMPDEST PUSH1 0x0 PUSH1 0xA0 DUP3 ADD SWAP1 POP PUSH2 0xB2F PUSH1 0x0 DUP4 ADD DUP9 PUSH2 0xAB2 JUMP JUMPDEST PUSH2 0xB3C PUSH1 0x20 DUP4 ADD DUP8 PUSH2 0xAC1 JUMP JUMPDEST PUSH2 0xB49 PUSH1 0x40 DUP4 ADD DUP7 PUSH2 0xAB2 JUMP JUMPDEST DUP2 DUP2 SUB PUSH1 0x60 DUP4 ADD MSTORE PUSH2 0xB5B DUP2 DUP6 PUSH2 0xAE1 JUMP JUMPDEST SWAP1 POP DUP2 DUP2 SUB PUSH1 0x80 DUP4 ADD MSTORE PUSH2 0xB6F DUP2 DUP5 PUSH2 0xAE1 JUMP JUMPDEST SWAP1 POP SWAP7 SWAP6 POP POP POP POP POP POP JUMP JUMPDEST PUSH32 0x4E487B7100000000000000000000000000000000000000000000000000000000 PUSH1 0x0 MSTORE PUSH1 0x32 PUSH1 0x4 MSTORE PUSH1 0x24 PUSH1 0x0 REVERT JUMPDEST PUSH32 0x4E487B7100000000000000000000000000000000000000000000000000000000 PUSH1 0x0 MSTORE PUSH1 0x22 PUSH1 0x4 MSTORE PUSH1 0x24 PUSH1 0x0 REVERT JUMPDEST PUSH1 0x0 PUSH1 0x2 DUP3 DIV SWAP1 POP PUSH1 0x1 DUP3 AND DUP1 PUSH2 0xBF1 JUMPI PUSH1 0x7F DUP3 AND SWAP2 POP JUMPDEST PUSH1 0x20 DUP3 LT DUP2 SUB PUSH2 0xC04 JUMPI PUSH2 0xC03 PUSH2 0xBAA JUMP JUMPDEST JUMPDEST POP SWAP2 SWAP1 POP JUMP JUMPDEST PUSH32 0x4E6F7420617574686F72697A6564000000000000000000000000000000000000 PUSH1 0x0 DUP3 ADD MSTORE POP JUMP JUMPDEST PUSH1 0x0 PUSH2 0xC40 PUSH1 0xE DUP4 PUSH2 0xAD0 JUMP JUMPDEST SWAP2 POP PUSH2 0xC4B DUP3 PUSH2 0xC0A JUMP JUMPDEST PUSH1 0x20 DUP3 ADD SWAP1 POP SWAP2 SWAP1 POP JUMP JUMPDEST PUSH1 0x0 PUSH1 0x20 DUP3 ADD SWAP1 POP DUP2 DUP2 SUB PUSH1 0x0 DUP4 ADD MSTORE PUSH2 0xC6F DUP2 PUSH2 0xC33 JUMP JUMPDEST SWAP1 POP SWAP2 SWAP1 POP JUMP JUMPDEST PUSH1 0x0 DUP2 SWAP1 POP DUP2 PUSH1 0x0 MSTORE PUSH1 0x20 PUSH1 0x0 KECCAK256 SWAP1 POP SWAP2 SWAP1 POP JUMP JUMPDEST PUSH1 0x0 PUSH1 0x20 PUSH1 0x1F DUP4 ADD DIV SWAP1 POP SWAP2 SWAP1 POP JUMP JUMPDEST PUSH1 0x0 DUP3 DUP3 SHL SWAP1 POP SWAP3 SWAP2 POP POP JUMP JUMPDEST PUSH1 0x0 PUSH1 0x8 DUP4 MUL PUSH2 0xCD8 PUSH32 0xFFFFFFFFFFFFFFFFFFFFFFFFFFFFFFFFFFFFFFFFFFFFFFFFFFFFFFFFFFFFFFFF DUP3 PUSH2 0xC9B JUMP JUMPDEST PUSH2 0xCE2 DUP7 DUP4 PUSH2 0xC9B JUMP JUMPDEST SWAP6 POP DUP1 NOT DUP5 AND SWAP4 POP DUP1 DUP7 AND DUP5 OR SWAP3 POP POP POP SWAP4 SWAP3 POP POP POP JUMP JUMPDEST PUSH1 0x0 DUP2 SWAP1 POP SWAP2 SWAP1 POP JUMP JUMPDEST PUSH1 0x0 PUSH2 0xD1F PUSH2 0xD1A PUSH2 0xD15 DUP5 PUSH2 0x72C JUMP JUMPDEST PUSH2 0xCFA JUMP JUMPDEST PUSH2 0x72C JUMP JUMPDEST SWAP1 POP SWAP2 SWAP1 POP JUMP JUMPDEST PUSH1 0x0 DUP2 SWAP1 POP SWAP2 SWAP1 POP JUMP JUMPDEST PUSH2 0xD39 DUP4 PUSH2 0xD04 JUMP JUMPDEST PUSH2 0xD4D PUSH2 0xD45 DUP3 PUSH2 0xD26 JUMP JUMPDEST DUP5 DUP5 SLOAD PUSH2 0xCA8 JUMP JUMPDEST DUP3 SSTORE POP POP POP POP JUMP JUMPDEST PUSH1 0x0 SWAP1 JUMP JUMPDEST PUSH2 0xD62 PUSH2 0xD55 JUMP JUMPDEST PUSH2 0xD6D DUP2 DUP5 DUP5 PUSH2 0xD30 JUMP JUMPDEST POP POP POP JUMP JUMPDEST JUMPDEST DUP2 DUP2 LT ISZERO PUSH2 0xD91 JUMPI PUSH2 0xD86 PUSH1 0x0 DUP3 PUSH2 0xD5A JUMP JUMPDEST PUSH1 0x1 DUP2 ADD SWAP1 POP PUSH2 0xD73 JUMP JUMPDEST POP POP JUMP JUMPDEST PUSH1 0x1F DUP3 GT ISZERO PUSH2 0xDD6 JUMPI PUSH2 0xDA7 DUP2 PUSH2 0xC76 JUMP JUMPDEST PUSH2 0xDB0 DUP5 PUSH2 0xC8B JUMP JUMPDEST DUP2 ADD PUSH1 0x20 DUP6 LT ISZERO PUSH2 0xDBF JUMPI DUP2 SWAP1 POP JUMPDEST PUSH2 0xDD3 PUSH2 0xDCB DUP6 PUSH2 0xC8B JUMP JUMPDEST DUP4 ADD DUP3 PUSH2 0xD72 JUMP JUMPDEST POP POP JUMPDEST POP POP POP JUMP JUMPDEST PUSH1 0x0 DUP3 DUP3 SHR SWAP1 POP SWAP3 SWAP2 POP POP JUMP JUMPDEST PUSH1 0x0 PUSH2 0xDF9 PUSH1 0x0 NOT DUP5 PUSH1 0x8 MUL PUSH2 0xDDB JUMP JUMPDEST NOT DUP1 DUP4 AND SWAP2 POP POP SWAP3 SWAP2 POP POP JUMP JUMPDEST PUSH1 0x0 PUSH2 0xE12 DUP4 DUP4 PUSH2 0xDE8 JUMP JUMPDEST SWAP2 POP DUP3 PUSH1 0x2 MUL DUP3 OR SWAP1 POP SWAP3 SWAP2 POP POP JUMP JUMPDEST PUSH2 0xE2B DUP3 PUSH2 0x7DF JUMP JUMPDEST PUSH8 0xFFFFFFFFFFFFFFFF DUP2 GT ISZERO PUSH2 0xE44 JUMPI PUSH2 0xE43 PUSH2 0x918 JUMP JUMPDEST JUMPDEST PUSH2 0xE4E DUP3 SLOAD PUSH2 0xBD9 JUMP JUMPDEST PUSH2 0xE59 DUP3 DUP3 DUP6 PUSH2 0xD95 JUMP JUMPDEST PUSH1 0x0 PUSH1 0x20 SWAP1 POP PUSH1 0x1F DUP4 GT PUSH1 0x1 DUP2 EQ PUSH2 0xE8C JUMPI PUSH1 0x0 DUP5 ISZERO PUSH2 0xE7A JUMPI DUP3 DUP8 ADD MLOAD SWAP1 POP JUMPDEST PUSH2 0xE84 DUP6 DUP3 PUSH2 0xE06 JUMP JUMPDEST DUP7 SSTORE POP PUSH2 0xEEC JUMP JUMPDEST PUSH1 0x1F NOT DUP5 AND PUSH2 0xE9A DUP7 PUSH2 0xC76 JUMP JUMPDEST PUSH1 0x0 JUMPDEST DUP3 DUP2 LT ISZERO PUSH2 0xEC2 JUMPI DUP5 DUP10 ADD MLOAD DUP3 SSTORE PUSH1 0x1 DUP3 ADD SWAP2 POP PUSH1 0x20 DUP6 ADD SWAP5 POP PUSH1 0x20 DUP2 ADD SWAP1 POP PUSH2 0xE9D JUMP JUMPDEST DUP7 DUP4 LT ISZERO PUSH2 0xEDF JUMPI DUP5 DUP10 ADD MLOAD PUSH2 0xEDB PUSH1 0x1F DUP10 AND DUP3 PUSH2 0xDE8 JUMP JUMPDEST DUP4 SSTORE POP JUMPDEST PUSH1 0x1 PUSH1 0x2 DUP9 MUL ADD DUP9 SSTORE POP POP POP JUMPDEST POP POP POP POP POP POP JUMP JUMPDEST PUSH1 0x0 DUP2 SLOAD PUSH2 0xF01 DUP2 PUSH2 0xBD9 JUMP JUMPDEST PUSH2 0xF0B DUP2 DUP7 PUSH2 0xAD0 JUMP JUMPDEST SWAP5 POP PUSH1 0x1 DUP3 AND PUSH1 0x0 DUP2 EQ PUSH2 0xF26 JUMPI PUSH1 0x1 DUP2 EQ PUSH2 0xF3C JUMPI PUSH2 0xF6F JUMP JUMPDEST PUSH1 0xFF NOT DUP4 AND DUP7 MSTORE DUP2 ISZERO ISZERO PUSH1 0x20 MUL DUP7 ADD SWAP4 POP PUSH2 0xF6F JUMP JUMPDEST PUSH2 0xF45 DUP6 PUSH2 0xC76 JUMP JUMPDEST PUSH1 0x0 JUMPDEST DUP4 DUP2 LT ISZERO PUSH2 0xF67 JUMPI DUP2 SLOAD DUP2 DUP10 ADD MSTORE PUSH1 0x1 DUP3 ADD SWAP2 POP PUSH1 0x20 DUP2 ADD SWAP1 POP PUSH2 0xF48 JUMP JUMPDEST DUP1 DUP9 ADD SWAP6 POP POP POP JUMPDEST POP POP POP SWAP3 SWAP2 POP POP JUMP JUMPDEST PUSH1 0x0 PUSH1 0x40 DUP3 ADD SWAP1 POP PUSH2 0xF8D PUSH1 0x0 DUP4 ADD DUP6 PUSH2 0xAB2 JUMP JUMPDEST DUP2 DUP2 SUB PUSH1 0x20 DUP4 ADD MSTORE PUSH2 0xF9F DUP2 DUP5 PUSH2 0xEF4 JUMP JUMPDEST SWAP1 POP SWAP4 SWAP3 POP POP POP JUMP JUMPDEST PUSH1 0x0 PUSH1 0x80 DUP3 ADD SWAP1 POP PUSH2 0xFBD PUSH1 0x0 DUP4 ADD DUP8 PUSH2 0xAB2 JUMP JUMPDEST PUSH2 0xFCA PUSH1 0x20 DUP4 ADD DUP7 PUSH2 0xAC1 JUMP JUMPDEST PUSH2 0xFD7 PUSH1 0x40 DUP4 ADD DUP6 PUSH2 0xAB2 JUMP JUMPDEST DUP2 DUP2 SUB PUSH1 0x60 DUP4 ADD MSTORE PUSH2 0xFE9 DUP2 DUP5 PUSH2 0xAE1 JUMP JUMPDEST SWAP1 POP SWAP6 SWAP5 POP POP POP POP POP JUMP INVALID LOG2 PUSH5 0x6970667358 0x22 SLT KECCAK256 SWAP8 SELFDESTRUCT CODECOPY LT ADD SWAP3 PUSH3 0x7BD78D 0xE5 0xC9 0xF7 DUP16 0xAD PUSH21 0xB54EB026152B08DED7CE1013039C46F564736F6C63 NUMBER STOP ADDMOD XOR STOP CALLER "},"methodIdentifiers":{"completePayment(uint256)":"4f01c6f2","createPayment(uint256,uint256,string)":"74672ac5","getPayment(uint256)":"3280a836","payments(uint256)":"87d81789"}}}}}