{
  "_format": "hh-sol-artifact-1",
  "contractName": "Payments",
  "sourceName": "contracts/payment.sol",
  "abi": [
    {
      "anonymous": false,
      "inputs": [
        {
          "indexed": false,
          "internalType": "uint256",
          "name": "id",
          "type": "uint256"
        },
        {
          "indexed": false,
          "internalType": "string",
          "name": "transactionId",
          "type": "string"
        }
      ],
      "name": "PaymentCompleted",
      "type": "event"
    },
    {
      "anonymous": false,
      "inputs": [
        {
          "indexed": false,
          "internalType": "uint256",
          "name": "id",
          "type": "uint256"
        },
        {
          "indexed": false,
          "internalType": "address",
          "name": "payer",
          "type": "address"
        },
        {
          "indexed": false,
          "internalType": "uint256",
          "name": "amount",
          "type": "uint256"
        },
        {
          "indexed": false,
          "internalType": "string",
          "name": "transactionId",
          "type": "string"
        }
      ],
      "name": "PaymentCreated",
      "type": "event"
    },
    {
      "inputs": [
        {
          "internalType": "uint256",
          "name": "_id",
          "type": "uint256"
        }
      ],
      "name": "completePayment",
      "outputs": [],
      "stateMutability": "nonpayable",
      "type": "function"
    },
    {
      "inputs": [
        {
          "internalType": "uint256",
          "name": "_id",
          "type": "uint256"
        },
        {
          "internalType": "uint256",
          "name": "_amount",
          "type": "uint256"
        },
        {
          "internalType": "string",
          "name": "_transactionId",
          "type": "string"
        }
      ],
      "name": "createPayment",
      "outputs": [],
      "stateMutability": "nonpayable",
      "type": "function"
    },
    {
      "inputs": [
        {
          "internalType": "uint256",
          "name": "_id",
          "type": "uint256"
        }
      ],
      "name": "getPayment",
      "outputs": [
        {
          "components": [
            {
              "internalType": "uint256",
              "name": "id",
              "type": "uint256"
            },
            {
              "internalType": "address",
              "name": "payer",
              "type": "address"
            },
            {
              "internalType": "uint256",
              "name": "amount",
              "type": "uint256"
            },
            {
              "internalType": "string",
              "name": "status",
              "type": "string"
            },
            {
              "internalType": "string",
              "name": "transactionId",
              "type": "string"
            }
          ],
          "internalType": "struct Payments.Payment",
          "name": "",
          "type": "tuple"
        }
      ],
      "stateMutability": "view",
      "type": "function"
    },
    {
      "inputs": [
        {
          "internalType": "uint256",
          "name": "",
          "type": "uint256"
        }
      ],
      "name": "payments",
      "outputs": [
        {
          "internalType": "uint256",
          "name": "id",
          "type": "uint256"
        },
        {
          "internalType": "address",
          "name": "payer",
          "type": "address"
        },
        {
          "internalType": "uint256",
          "name": "amount",
          "type": "uint256"
        },
        {
          "internalType": "string",
          "name": "status",
          "type": "string"
        },
        {
          "internalType": "string",
          "name": "transactionId",
          "type": "string"
        }
      ],
      "stateMutability": "view",
      "type": "function"
    }
  ],
  "bytecode": "0x608060405234801561001057600080fd5b5061102a806100206000396000f3fe608060405234801561001057600080fd5b506004361061004c5760003560e01c80633280a836146100515780634f01c6f21461008157806374672ac51461009d57806387d81789146100b9575b600080fd5b61006b60048036038101906100669190610762565b6100ed565b60405161007891906108ec565b60405180910390f35b61009b60048036038101906100969190610762565b6102b7565b005b6100b760048036038101906100b29190610a43565b6103f5565b005b6100d360048036038101906100ce9190610762565b61055d565b6040516100e4959493929190610b1a565b60405180910390f35b6100f56106d3565b6000828154811061010957610108610b7b565b5b90600052602060002090600502016040518060a0016040529081600082015481526020016001820160009054906101000a900473ffffffffffffffffffffffffffffffffffffffff1673ffffffffffffffffffffffffffffffffffffffff1673ffffffffffffffffffffffffffffffffffffffff1681526020016002820154815260200160038201805461019c90610bd9565b80601f01602080910402602001604051908101604052809291908181526020018280546101c890610bd9565b80156102155780601f106101ea57610100808354040283529160200191610215565b820191906000526020600020905b8154815290600101906020018083116101f857829003601f168201915b5050505050815260200160048201805461022e90610bd9565b80601f016020809104026020016040519081016040528092919081815260200182805461025a90610bd9565b80156102a75780601f1061027c576101008083540402835291602001916102a7565b820191906000526020600020905b81548152906001019060200180831161028a57829003601f168201915b5050505050815250509050919050565b60008082815481106102cc576102cb610b7b565b5b906000526020600020906005020190508060010160009054906101000a900473ffffffffffffffffffffffffffffffffffffffff1673ffffffffffffffffffffffffffffffffffffffff163373ffffffffffffffffffffffffffffffffffffffff161461036e576040517f08c379a000000000000000000000000000000000000000000000000000000000815260040161036590610c56565b60405180910390fd5b6040518060400160405280600981526020017f636f6d706c6574656400000000000000000000000000000000000000000000008152508160030190816103b49190610e22565b507f446b53a9496f96b95579e158fe1799f054a7eca794b95d13c30e307ecb4162f182826004016040516103e9929190610f78565b60405180910390a15050565b60006040518060a001604052808581526020013373ffffffffffffffffffffffffffffffffffffffff1681526020018481526020016040518060400160405280600781526020017f70656e64696e670000000000000000000000000000000000000000000000000081525081526020018381525090806001815401808255809150506001900390600052602060002090600502016000909190919091506000820151816000015560208201518160010160006101000a81548173ffffffffffffffffffffffffffffffffffffffff021916908373ffffffffffffffffffffffffffffffffffffffff1602179055506040820151816002015560608201518160030190816105029190610e22565b5060808201518160040190816105189190610e22565b5050507faa8f9254dae3aad45f8301a3a7ebdd389cee0278db542ecc5f9636beaee61442833384846040516105509493929190610fa8565b60405180910390a1505050565b6000818154811061056d57600080fd5b90600052602060002090600502016000915090508060000154908060010160009054906101000a900473ffffffffffffffffffffffffffffffffffffffff16908060020154908060030180546105c290610bd9565b80601f01602080910402602001604051908101604052809291908181526020018280546105ee90610bd9565b801561063b5780601f106106105761010080835404028352916020019161063b565b820191906000526020600020905b81548152906001019060200180831161061e57829003601f168201915b50505050509080600401805461065090610bd9565b80601f016020809104026020016040519081016040528092919081815260200182805461067c90610bd9565b80156106c95780601f1061069e576101008083540402835291602001916106c9565b820191906000526020600020905b8154815290600101906020018083116106ac57829003601f168201915b5050505050905085565b6040518060a0016040528060008152602001600073ffffffffffffffffffffffffffffffffffffffff1681526020016000815260200160608152602001606081525090565b6000604051905090565b600080fd5b600080fd5b6000819050919050565b61073f8161072c565b811461074a57600080fd5b50565b60008135905061075c81610736565b92915050565b60006020828403121561077857610777610722565b5b60006107868482850161074d565b91505092915050565b6107988161072c565b82525050565b600073ffffffffffffffffffffffffffffffffffffffff82169050919050565b60006107c98261079e565b9050919050565b6107d9816107be565b82525050565b600081519050919050565b600082825260208201905092915050565b60005b838110156108195780820151818401526020810190506107fe565b60008484015250505050565b6000601f19601f8301169050919050565b6000610841826107df565b61084b81856107ea565b935061085b8185602086016107fb565b61086481610825565b840191505092915050565b600060a083016000830151610887600086018261078f565b50602083015161089a60208601826107d0565b5060408301516108ad604086018261078f565b50606083015184820360608601526108c58282610836565b915050608083015184820360808601526108df8282610836565b9150508091505092915050565b60006020820190508181036000830152610906818461086f565b905092915050565b600080fd5b600080fd5b7f4e487b7100000000000000000000000000000000000000000000000000000000600052604160045260246000fd5b61095082610825565b810181811067ffffffffffffffff8211171561096f5761096e610918565b5b80604052505050565b6000610982610718565b905061098e8282610947565b919050565b600067ffffffffffffffff8211156109ae576109ad610918565b5b6109b782610825565b9050602081019050919050565b82818337600083830152505050565b60006109e66109e184610993565b610978565b905082815260208101848484011115610a0257610a01610913565b5b610a0d8482856109c4565b509392505050565b600082601f830112610a2a57610a2961090e565b5b8135610a3a8482602086016109d3565b91505092915050565b600080600060608486031215610a5c57610a5b610722565b5b6000610a6a8682870161074d565b9350506020610a7b8682870161074d565b925050604084013567ffffffffffffffff811115610a9c57610a9b610727565b5b610aa886828701610a15565b9150509250925092565b610abb8161072c565b82525050565b610aca816107be565b82525050565b600082825260208201905092915050565b6000610aec826107df565b610af68185610ad0565b9350610b068185602086016107fb565b610b0f81610825565b840191505092915050565b600060a082019050610b2f6000830188610ab2565b610b3c6020830187610ac1565b610b496040830186610ab2565b8181036060830152610b5b8185610ae1565b90508181036080830152610b6f8184610ae1565b90509695505050505050565b7f4e487b7100000000000000000000000000000000000000000000000000000000600052603260045260246000fd5b7f4e487b7100000000000000000000000000000000000000000000000000000000600052602260045260246000fd5b60006002820490506001821680610bf157607f821691505b602082108103610c0457610c03610baa565b5b50919050565b7f4e6f7420617574686f72697a6564000000000000000000000000000000000000600082015250565b6000610c40600e83610ad0565b9150610c4b82610c0a565b602082019050919050565b60006020820190508181036000830152610c6f81610c33565b9050919050565b60008190508160005260206000209050919050565b60006020601f8301049050919050565b600082821b905092915050565b600060088302610cd87fffffffffffffffffffffffffffffffffffffffffffffffffffffffffffffffff82610c9b565b610ce28683610c9b565b95508019841693508086168417925050509392505050565b6000819050919050565b6000610d1f610d1a610d158461072c565b610cfa565b61072c565b9050919050565b6000819050919050565b610d3983610d04565b610d4d610d4582610d26565b848454610ca8565b825550505050565b600090565b610d62610d55565b610d6d818484610d30565b505050565b5b81811015610d9157610d86600082610d5a565b600181019050610d73565b5050565b601f821115610dd657610da781610c76565b610db084610c8b565b81016020851015610dbf578190505b610dd3610dcb85610c8b565b830182610d72565b50505b505050565b600082821c905092915050565b6000610df960001984600802610ddb565b1980831691505092915050565b6000610e128383610de8565b9150826002028217905092915050565b610e2b826107df565b67ffffffffffffffff811115610e4457610e43610918565b5b610e4e8254610bd9565b610e59828285610d95565b600060209050601f831160018114610e8c5760008415610e7a578287015190505b610e848582610e06565b865550610eec565b601f198416610e9a86610c76565b60005b82811015610ec257848901518255600182019150602085019450602081019050610e9d565b86831015610edf5784890151610edb601f891682610de8565b8355505b6001600288020188555050505b505050505050565b60008154610f0181610bd9565b610f0b8186610ad0565b94506001821660008114610f265760018114610f3c57610f6f565b60ff198316865281151560200286019350610f6f565b610f4585610c76565b60005b83811015610f6757815481890152600182019150602081019050610f48565b808801955050505b50505092915050565b6000604082019050610f8d6000830185610ab2565b8181036020830152610f9f8184610ef4565b90509392505050565b6000608082019050610fbd6000830187610ab2565b610fca6020830186610ac1565b610fd76040830185610ab2565b8181036060830152610fe98184610ae1565b90509594505050505056fea264697066735822122097ff39100192627bd78de5c9f78fad74b54eb026152b08ded7ce1013039c46f564736f6c63430008180033",
  "linkReferences": {},
  "deployedLinkReferences": {}
}